{
  "_format": "hh-sol-artifact-1",
  "contractName": "EncryptedHighLow",
  "sourceName": "contracts/EncryptedHighLow.sol",
  "abi": [
    {
      "inputs": [],
      "name": "HandlesAlreadySavedForRequestID",
      "type": "error"
    },
    {
      "inputs": [],
      "name": "InvalidKMSSignatures",
      "type": "error"
    },
    {
      "inputs": [],
      "name": "NoHandleFoundForRequestID",
      "type": "error"
    },
    {
      "inputs": [],
      "name": "ReentrancyGuardReentrantCall",
      "type": "error"
    },
    {
      "anonymous": false,
      "inputs": [
        {
          "indexed": true,
          "internalType": "uint256",
          "name": "gameId",
          "type": "uint256"
        },
        {
          "indexed": true,
          "internalType": "address",
          "name": "creator",
          "type": "address"
        },
        {
          "indexed": false,
          "internalType": "uint256",
          "name": "amount",
          "type": "uint256"
        }
      ],
      "name": "CreatorClaimed",
      "type": "event"
    },
    {
      "anonymous": false,
      "inputs": [
        {
          "indexed": true,
          "internalType": "uint256",
          "name": "requestID",
          "type": "uint256"
        }
      ],
      "name": "DecryptionFulfilled",
      "type": "event"
    },
    {
      "anonymous": false,
      "inputs": [
        {
          "indexed": true,
          "internalType": "uint256",
          "name": "gameId",
          "type": "uint256"
        },
        {
          "indexed": true,
          "internalType": "address",
          "name": "creator",
          "type": "address"
        },
        {
          "indexed": false,
          "internalType": "uint256",
          "name": "minStake",
          "type": "uint256"
        },
        {
          "indexed": false,
          "internalType": "uint256",
          "name": "endTime",
          "type": "uint256"
        },
        {
          "indexed": false,
          "internalType": "uint256",
          "name": "rewardPool",
          "type": "uint256"
        }
      ],
      "name": "GameCreated",
      "type": "event"
    },
    {
      "anonymous": false,
      "inputs": [
        {
          "indexed": true,
          "internalType": "uint256",
          "name": "gameId",
          "type": "uint256"
        },
        {
          "indexed": true,
          "internalType": "address",
          "name": "player",
          "type": "address"
        },
        {
          "indexed": false,
          "internalType": "uint256",
          "name": "stake",
          "type": "uint256"
        }
      ],
      "name": "GameJoined",
      "type": "event"
    },
    {
      "anonymous": false,
      "inputs": [
        {
          "indexed": true,
          "internalType": "uint256",
          "name": "gameId",
          "type": "uint256"
        },
        {
          "indexed": false,
          "internalType": "uint8",
          "name": "revealedNumber",
          "type": "uint8"
        },
        {
          "indexed": false,
          "internalType": "bool",
          "name": "numberIsBig",
          "type": "bool"
        },
        {
          "indexed": false,
          "internalType": "uint256",
          "name": "winnersCount",
          "type": "uint256"
        },
        {
          "indexed": false,
          "internalType": "uint256",
          "name": "creatorShare",
          "type": "uint256"
        },
        {
          "indexed": false,
          "internalType": "uint256",
          "name": "payoutPerWinner",
          "type": "uint256"
        }
      ],
      "name": "GameSettled",
      "type": "event"
    },
    {
      "anonymous": false,
      "inputs": [
        {
          "indexed": true,
          "internalType": "uint256",
          "name": "gameId",
          "type": "uint256"
        },
        {
          "indexed": false,
          "internalType": "uint256",
          "name": "requestId",
          "type": "uint256"
        }
      ],
      "name": "RevealRequested",
      "type": "event"
    },
    {
      "anonymous": false,
      "inputs": [
        {
          "indexed": true,
          "internalType": "uint256",
          "name": "gameId",
          "type": "uint256"
        },
        {
          "indexed": true,
          "internalType": "address",
          "name": "player",
          "type": "address"
        },
        {
          "indexed": false,
          "internalType": "uint256",
          "name": "amount",
          "type": "uint256"
        }
      ],
      "name": "WinningsClaimed",
      "type": "event"
    },
    {
      "inputs": [],
      "name": "MIN_CREATOR_REWARD",
      "outputs": [
        {
          "internalType": "uint256",
          "name": "",
          "type": "uint256"
        }
      ],
      "stateMutability": "view",
      "type": "function"
    },
    {
      "inputs": [],
      "name": "MIN_DURATION",
      "outputs": [
        {
          "internalType": "uint256",
          "name": "",
          "type": "uint256"
        }
      ],
      "stateMutability": "view",
      "type": "function"
    },
    {
      "inputs": [],
      "name": "MIN_STAKE",
      "outputs": [
        {
          "internalType": "uint256",
          "name": "",
          "type": "uint256"
        }
      ],
      "stateMutability": "view",
      "type": "function"
    },
    {
      "inputs": [
        {
          "internalType": "uint256",
          "name": "gameId",
          "type": "uint256"
        }
      ],
      "name": "autoSettle",
      "outputs": [
        {
          "internalType": "bool",
          "name": "",
          "type": "bool"
        }
      ],
      "stateMutability": "nonpayable",
      "type": "function"
    },
    {
      "inputs": [
        {
          "internalType": "uint256",
          "name": "gameId",
          "type": "uint256"
        }
      ],
      "name": "claimCreator",
      "outputs": [],
      "stateMutability": "nonpayable",
      "type": "function"
    },
    {
      "inputs": [
        {
          "internalType": "uint256",
          "name": "gameId",
          "type": "uint256"
        }
      ],
      "name": "claimWinnings",
      "outputs": [],
      "stateMutability": "nonpayable",
      "type": "function"
    },
    {
      "inputs": [
        {
          "internalType": "externalEuint8",
          "name": "secretNumberHandle",
          "type": "bytes32"
        },
        {
          "internalType": "bytes",
          "name": "inputProof",
          "type": "bytes"
        },
        {
          "internalType": "bytes32",
          "name": "secretNumberHash",
          "type": "bytes32"
        },
        {
          "internalType": "uint256",
          "name": "minStake",
          "type": "uint256"
        },
        {
          "internalType": "uint256",
          "name": "endTime",
          "type": "uint256"
        },
        {
          "internalType": "uint256",
          "name": "rewardPool",
          "type": "uint256"
        },
        {
          "internalType": "bool",
          "name": "enableAutoSettle",
          "type": "bool"
        }
      ],
      "name": "createGame",
      "outputs": [
        {
          "internalType": "uint256",
          "name": "gameId",
          "type": "uint256"
        }
      ],
      "stateMutability": "payable",
      "type": "function"
    },
    {
      "inputs": [
        {
          "internalType": "uint256",
          "name": "gameId",
          "type": "uint256"
        },
        {
          "internalType": "uint8",
          "name": "revealedNumber",
          "type": "uint8"
        },
        {
          "internalType": "bool[]",
          "name": "guesses",
          "type": "bool[]"
        }
      ],
      "name": "debugReveal",
      "outputs": [
        {
          "internalType": "bool",
          "name": "",
          "type": "bool"
        }
      ],
      "stateMutability": "nonpayable",
      "type": "function"
    },
    {
      "inputs": [
        {
          "internalType": "uint256",
          "name": "gameId",
          "type": "uint256"
        },
        {
          "internalType": "uint8",
          "name": "originalSecretNumber",
          "type": "uint8"
        },
        {
          "internalType": "bytes32",
          "name": "salt",
          "type": "bytes32"
        }
      ],
      "name": "fairReveal",
      "outputs": [
        {
          "internalType": "bool",
          "name": "",
          "type": "bool"
        }
      ],
      "stateMutability": "nonpayable",
      "type": "function"
    },
    {
      "inputs": [
        {
          "internalType": "uint256",
          "name": "gameId",
          "type": "uint256"
        }
      ],
      "name": "getEncryptedSecret",
      "outputs": [
        {
          "internalType": "euint8",
          "name": "",
          "type": "bytes32"
        }
      ],
      "stateMutability": "view",
      "type": "function"
    },
    {
      "inputs": [
        {
          "internalType": "uint256",
          "name": "gameId",
          "type": "uint256"
        }
      ],
      "name": "getGame",
      "outputs": [
        {
          "components": [
            {
              "internalType": "address",
              "name": "creator",
              "type": "address"
            },
            {
              "internalType": "uint256",
              "name": "minStake",
              "type": "uint256"
            },
            {
              "internalType": "uint256",
              "name": "createdAt",
              "type": "uint256"
            },
            {
              "internalType": "uint256",
              "name": "endTime",
              "type": "uint256"
            },
            {
              "internalType": "uint256",
              "name": "rewardPool",
              "type": "uint256"
            },
            {
              "internalType": "uint256",
              "name": "totalPot",
              "type": "uint256"
            },
            {
              "internalType": "bool",
              "name": "revealPending",
              "type": "bool"
            },
            {
              "internalType": "bool",
              "name": "settled",
              "type": "bool"
            },
            {
              "internalType": "bool",
              "name": "autoSettleEnabled",
              "type": "bool"
            },
            {
              "internalType": "uint8",
              "name": "revealedNumber",
              "type": "uint8"
            },
            {
              "internalType": "bool",
              "name": "numberIsBig",
              "type": "bool"
            },
            {
              "internalType": "uint256",
              "name": "winnersCount",
              "type": "uint256"
            },
            {
              "internalType": "uint256",
              "name": "creatorShare",
              "type": "uint256"
            },
            {
              "internalType": "uint256",
              "name": "payoutPerWinner",
              "type": "uint256"
            },
            {
              "internalType": "uint256",
              "name": "participantCount",
              "type": "uint256"
            },
            {
              "internalType": "bool",
              "name": "creatorClaimed",
              "type": "bool"
            }
          ],
          "internalType": "struct EncryptedHighLow.GameSummary",
          "name": "",
          "type": "tuple"
        }
      ],
      "stateMutability": "view",
      "type": "function"
    },
    {
      "inputs": [
        {
          "internalType": "uint256",
          "name": "gameId",
          "type": "uint256"
        },
        {
          "internalType": "address",
          "name": "account",
          "type": "address"
        }
      ],
      "name": "getParticipant",
      "outputs": [
        {
          "components": [
            {
              "internalType": "uint256",
              "name": "stake",
              "type": "uint256"
            },
            {
              "internalType": "bool",
              "name": "exists",
              "type": "bool"
            },
            {
              "internalType": "bool",
              "name": "won",
              "type": "bool"
            },
            {
              "internalType": "bool",
              "name": "claimed",
              "type": "bool"
            },
            {
              "internalType": "bool",
              "name": "choiceRevealed",
              "type": "bool"
            },
            {
              "internalType": "bool",
              "name": "guessedBig",
              "type": "bool"
            }
          ],
          "internalType": "struct EncryptedHighLow.ParticipantView",
          "name": "",
          "type": "tuple"
        }
      ],
      "stateMutability": "view",
      "type": "function"
    },
    {
      "inputs": [
        {
          "internalType": "uint256",
          "name": "gameId",
          "type": "uint256"
        },
        {
          "internalType": "externalEbool",
          "name": "guessHandle",
          "type": "bytes32"
        },
        {
          "internalType": "bytes",
          "name": "inputProof",
          "type": "bytes"
        }
      ],
      "name": "joinGame",
      "outputs": [],
      "stateMutability": "payable",
      "type": "function"
    },
    {
      "inputs": [
        {
          "internalType": "uint256",
          "name": "gameId",
          "type": "uint256"
        }
      ],
      "name": "listParticipants",
      "outputs": [
        {
          "internalType": "address[]",
          "name": "",
          "type": "address[]"
        }
      ],
      "stateMutability": "view",
      "type": "function"
    },
    {
      "inputs": [],
      "name": "nextGameId",
      "outputs": [
        {
          "internalType": "uint256",
          "name": "",
          "type": "uint256"
        }
      ],
      "stateMutability": "view",
      "type": "function"
    },
    {
      "inputs": [],
      "name": "protocolId",
      "outputs": [
        {
          "internalType": "uint256",
          "name": "",
          "type": "uint256"
        }
      ],
      "stateMutability": "pure",
      "type": "function"
    },
    {
      "inputs": [
        {
          "internalType": "uint256",
          "name": "gameId",
          "type": "uint256"
        }
      ],
      "name": "requestReveal",
      "outputs": [],
      "stateMutability": "nonpayable",
      "type": "function"
    },
    {
      "inputs": [
        {
          "internalType": "uint256",
          "name": "requestId",
          "type": "uint256"
        },
        {
          "internalType": "bytes",
          "name": "cleartexts",
          "type": "bytes"
        },
        {
          "internalType": "bytes",
          "name": "decryptionProof",
          "type": "bytes"
        }
      ],
      "name": "revealCallback",
      "outputs": [
        {
          "internalType": "bool",
          "name": "",
          "type": "bool"
        }
      ],
      "stateMutability": "nonpayable",
      "type": "function"
    },
    {
      "inputs": [],
      "name": "totalGames",
      "outputs": [
        {
          "internalType": "uint256",
          "name": "",
          "type": "uint256"
        }
      ],
      "stateMutability": "view",
      "type": "function"
    }
  ],
  "bytecode": "0x608060405234801561000f575f5ffd5b5061018a6100ae604080516080810182525f80825260208201819052918101829052606081019190915250604080516080810182527350157cffd6bbfa2dece204a89ec419c23ef5755d815273cd3ab3bd6bcc0c0bf3e27912a92043e817b1cf69602082015273a02cda4ca3a71d7c46997716f4283aa851c2881291810191909152731364cbbf2cdf5032c47d8226a6f6fbd2afcdacac606082015290565b80517f9e7b61f58c47dc699ac88507c4f5bb9f121c03808c5676a8078fe583e464970080546001600160a01b03199081166001600160a01b039384161790915560208301517f9e7b61f58c47dc699ac88507c4f5bb9f121c03808c5676a8078fe583e46497018054831691841691909117905560408301517f9e7b61f58c47dc699ac88507c4f5bb9f121c03808c5676a8078fe583e46497028054831691841691909117905560608301517f9e7b61f58c47dc699ac88507c4f5bb9f121c03808c5676a8078fe583e46497038054909216921691909117905550565b60015f556133688061019b5f395ff3fe60806040526004361061013d575f3560e01c806379820810116100bb578063cb1c2b5c11610071578063da1f12ab11610057578063da1f12ab14610388578063e52f97671461039c578063f0fc4580146103b0575f5ffd5b8063cb1c2b5c14610342578063d11aac5c1461035c575f5ffd5b8063a2f77bcc116100a1578063a2f77bcc146102ed578063b135bbb014610319578063b6a6d1771461032e575f5ffd5b806379820810146102af5780639f64f801146102ce575f5ffd5b806340261cdd116101105780634a67b832116100f65780634a67b832146102525780635bb518f814610271578063677bd9ff14610290575f5ffd5b806340261cdd1461021e57806349fa0e9a1461023f575f5ffd5b80631af947a914610141578063236102ef146101755780632c4e591b1461019657806335f3ad7a146101aa575b5f5ffd5b34801561014c575f5ffd5b5061016061015b366004612c12565b6103cf565b60405190151581526020015b60405180910390f35b610188610183366004612ca2565b61070f565b60405190815260200161016c565b3480156101a1575f5ffd5b50600154610188565b3480156101b5575f5ffd5b506101c96101c4366004612d23565b6109d9565b60405161016c91905f60c0820190508251825260208301511515602083015260408301511515604083015260608301511515606083015260808301511515608083015260a0830151151560a083015292915050565b348015610229575f5ffd5b5061023d610238366004612d5c565b610ada565b005b61023d61024d366004612d73565b610dc4565b34801561025d575f5ffd5b5061018861026c366004612d5c565b61115d565b34801561027c575f5ffd5b5061016061028b366004612d5c565b6111b7565b34801561029b575f5ffd5b5061023d6102aa366004612d5c565b611577565b3480156102ba575f5ffd5b5061023d6102c9366004612d5c565b611829565b3480156102d9575f5ffd5b506101606102e8366004612dc2565b6119f2565b3480156102f8575f5ffd5b5061030c610307366004612d5c565b611c65565b60405161016c9190612e48565b348015610324575f5ffd5b5061018860015481565b348015610339575f5ffd5b50610188603c81565b34801561034d575f5ffd5b5061018866038d7ea4c6800081565b348015610367575f5ffd5b5061037b610376366004612d5c565b611e25565b60405161016c9190612f3c565b348015610393575f5ffd5b50612711610188565b3480156103a7575f5ffd5b50610188600181565b3480156103bb575f5ffd5b506101606103ca366004612f87565b611ed1565b5f8360015481106104145760405162461bcd60e51b815260206004820181905260248201525f51602061333c5f395f51905f5260448201526064015b60405180910390fd5b5f8581526002602052604090206008810154610100900460ff16156104855760405162461bcd60e51b815260206004820152602160248201527f456e63727970746564486967684c6f773a20616c726561647920736574746c656044820152601960fa1b606482015260840161040b565b80600201544210156104d95760405162461bcd60e51b815260206004820152601e60248201527f456e63727970746564486967684c6f773a20726f756e64206163746976650000604482015260640161040b565b80546001600160a01b031633146105585760405162461bcd60e51b815260206004820152602960248201527f456e63727970746564486967684c6f773a206f6e6c792063726561746f72206360448201527f616e2072657665616c0000000000000000000000000000000000000000000000606482015260840161040b565b6040517fff0000000000000000000000000000000000000000000000000000000000000060f887901b166020820152602181018590525f90604101604051602081830303815290604052805190602001209050816007015481146105fe5760405162461bcd60e51b815260206004820152601f60248201527f456e63727970746564486967684c6f773a2068617368206d69736d6174636800604482015260640161040b565b60108201545f8167ffffffffffffffff81111561061d5761061d613000565b604051908082528060200260200182016040528015610646578160200160208202803683370190505b5090505f5b8281101561067f57600182828151811061066757610667613014565b9115156020928302919091019091015260010161064b565b505f5f5f61068e878c866120d7565b9250925092508b7f205b268a0a37384cc73396235b8e9940016f506f8559ea77d101a776230341538c60058e60ff16118686866040516106f595949392919060ff959095168552921515602085015260408401919091526060830152608082015260a00190565b60405180910390a25060019b9a5050505050505050505050565b5f61071b603c4261303c565b84116107755760405162461bcd60e51b815260206004820152602360248201527f456e63727970746564486967684c6f773a20656e642074696d6520746f6f207360448201526237b7b760e91b606482015260840161040b565b66038d7ea4c680008510156107d85760405162461bcd60e51b815260206004820152602360248201527f456e63727970746564486967684c6f773a206d696e207374616b6520746f6f206044820152626c6f7760e81b606482015260840161040b565b60018310156108345760405162461bcd60e51b815260206004820152602260248201527f456e63727970746564486967684c6f773a2072657761726420746f6f20736d616044820152611b1b60f21b606482015260840161040b565b8234146108a95760405162461bcd60e51b815260206004820152602960248201527f456e63727970746564486967684c6f773a207265776172642066756e64696e6760448201527f206d69736d617463680000000000000000000000000000000000000000000000606482015260840161040b565b60018054905f6108b88361304f565b909155505f81815260026020818152604092839020805473ffffffffffffffffffffffffffffffffffffffff191633178155600181018a90559182018890554260038301556004820187905560058201879055600782018a90558251601f8c018290048202810182019093528a835292935091610950918c918c908c90819084018382808284375f9201919091525061235292505050565b6006820181905560088201805462ff00001916620100008615150217905561097790612368565b50610986816006015433612377565b506040805187815260208101879052908101859052339083907f93a0ae9223906b776329cf5728500e59cb8e02af3d8a5c760407ff2038da79c09060600160405180910390a35098975050505050505050565b6040805160c0810182525f80825260208201819052918101829052606081018290526080810182905260a0810191909152826001548110610a495760405162461bcd60e51b815260206004820181905260248201525f51602061333c5f395f51905f52604482015260640161040b565b5f8481526002602081815260408084206001600160a01b0388168552601101825292839020835160c0810185526001820154815292015460ff8082161515928401929092526101008104821615159383019390935262010000830481161515606083015263010000008304811615156080830152640100000000909204909116151560a082015291505b5092915050565b806001548110610b195760405162461bcd60e51b815260206004820181905260248201525f51602061333c5f395f51905f52604482015260640161040b565b5f82815260026020819052604090912090810154421015610b885760405162461bcd60e51b8152602060048201526024808201527f456e63727970746564486967684c6f773a20726f756e64207374696c6c2061636044820152637469766560e01b606482015260840161040b565b6008810154610100900460ff1615610bec5760405162461bcd60e51b815260206004820152602160248201527f456e63727970746564486967684c6f773a20616c726561647920736574746c656044820152601960fa1b606482015260840161040b565b600881015460ff1615610c415760405162461bcd60e51b815260206004820181905260248201527f456e63727970746564486967684c6f773a2072657665616c2070656e64696e67604482015260640161040b565b60088101805460ff191660019081179091556010820154905f90610c6690839061303c565b90505f8167ffffffffffffffff811115610c8257610c82613000565b604051908082528060200260200182016040528015610cab578160200160208202803683370190505b509050610cb9846006015490565b815f81518110610ccb57610ccb613014565b60209081029190910101525f5b83811015610d52575f856010018281548110610cf657610cf6613014565b5f9182526020808320909101546001600160a01b031680835260118901909152604090912080549192509084610d2d85600161303c565b81518110610d3d57610d3d613014565b60209081029190910101525050600101610cd8565b505f610d65826301e1f88b60e71b612389565b600986018190555f81815260036020526040908190208990555190915087907f636f7c8c708e048e354abf12cce3c8388becccbc306c3aca98b59406c7e0a9d390610db39084815260200190565b60405180910390a250505050505050565b836001548110610e035760405162461bcd60e51b815260206004820181905260248201525f51602061333c5f395f51905f52604482015260640161040b565b5f858152600260208190526040909120908101544210610e8b5760405162461bcd60e51b815260206004820152602660248201527f456e63727970746564486967684c6f773a206d6174636820616c72656164792060448201527f636c6f7365640000000000000000000000000000000000000000000000000000606482015260840161040b565b600881015460ff16158015610eaa57506008810154610100900460ff16155b610f1c5760405162461bcd60e51b815260206004820152602860248201527f456e63727970746564486967684c6f773a20736574746c656d656e7420696e2060448201527f70726f6772657373000000000000000000000000000000000000000000000000606482015260840161040b565b80546001600160a01b03163303610f9b5760405162461bcd60e51b815260206004820152602560248201527f456e63727970746564486967684c6f773a2063726561746f722063616e6e6f7460448201527f206a6f696e000000000000000000000000000000000000000000000000000000606482015260840161040b565b335f9081526011820160205260409020600281015460ff16156110005760405162461bcd60e51b815260206004820181905260248201527f456e63727970746564486967684c6f773a20616c7265616479206a6f696e6564604482015260640161040b565b81600101543410156110605760405162461bcd60e51b8152602060048201526024808201527f456e63727970746564486967684c6f773a20696e73756666696369656e74207360448201526374616b6560e01b606482015260840161040b565b34826005015f828254611073919061303c565b925050819055506110b98686868080601f0160208091040260200160405190810160405280939291908181526020018383808284375f9201919091525061239592505050565b81553460018083019190915560028201805460ff19168217905560108301805491820181555f9081526020902001805473ffffffffffffffffffffffffffffffffffffffff191633179055805461110f90612368565b50805461111c9033612377565b50604051348152339088907f48bba6a72d4a9fae48e2469ce99518c38afec785fa4f3df38a1a76b03a9795379060200160405180910390a350505050505050565b5f81600154811061119d5760405162461bcd60e51b815260206004820181905260248201525f51602061333c5f395f51905f52604482015260640161040b565b5f8381526002602052604090206006015491505b50919050565b5f8160015481106111f75760405162461bcd60e51b815260206004820181905260248201525f51602061333c5f395f51905f52604482015260640161040b565b5f8381526002602052604090206008810154610100900460ff16156112685760405162461bcd60e51b815260206004820152602160248201527f456e63727970746564486967684c6f773a20616c726561647920736574746c656044820152601960fa1b606482015260840161040b565b80600201544210156112c85760405162461bcd60e51b8152602060048201526024808201527f456e63727970746564486967684c6f773a20726f756e64207374696c6c2061636044820152637469766560e01b606482015260840161040b565b46617a6914806112d9575046610539145b1561146e57600881015460ff166114645760108101545f6112fb82600161303c565b90505f8167ffffffffffffffff81111561131757611317613000565b604051908082528060200260200182016040528015611340578160200160208202803683370190505b50905061134e846006015490565b815f8151811061136057611360613014565b60209081029190910101525f5b838110156113e7575f85601001828154811061138b5761138b613014565b5f9182526020808320909101546001600160a01b0316808352601189019091526040909120805491925090846113c285600161303c565b815181106113d2576113d2613014565b6020908102919091010152505060010161136d565b505f6113fa826301e1f88b60e71b612389565b6009860181905560088601805460ff191660011790555f81815260036020526040908190208a90555190915088907f636f7c8c708e048e354abf12cce3c8388becccbc306c3aca98b59406c7e0a9d3906114579084815260200190565b60405180910390a2505050505b60019250506111b1565b600881015460ff166114645760108101545f61148b82600161303c565b90505f8167ffffffffffffffff8111156114a7576114a7613000565b6040519080825280602002602001820160405280156114d0578160200160208202803683370190505b5090506114de846006015490565b815f815181106114f0576114f0613014565b60209081029190910101525f5b838110156113e7575f85601001828154811061151b5761151b613014565b5f9182526020808320909101546001600160a01b03168083526011890190915260409091208054919250908461155285600161303c565b8151811061156257611562613014565b602090810291909101015250506001016114fd565b61157f6123a1565b8060015481106115be5760405162461bcd60e51b815260206004820181905260248201525f51602061333c5f395f51905f52604482015260640161040b565b5f8281526002602052604090206008810154610100900460ff166116245760405162461bcd60e51b815260206004820152601d60248201527f456e63727970746564486967684c6f773a206e6f7420736574746c6564000000604482015260640161040b565b335f9081526011820160205260409020600281015460ff166116935760405162461bcd60e51b815260206004820152602260248201527f456e63727970746564486967684c6f773a206e6f742061206368616c6c656e6760448201526132b960f11b606482015260840161040b565b6002810154610100900460ff166116ec5760405162461bcd60e51b815260206004820152601e60248201527f456e63727970746564486967684c6f773a206e6f7420656c696769626c650000604482015260640161040b565b600281015462010000900460ff16156117515760405162461bcd60e51b815260206004820152602160248201527f456e63727970746564486967684c6f773a20616c726561647920636c61696d656044820152601960fa1b606482015260840161040b565b5f82600d0154116117af5760405162461bcd60e51b815260206004820152602260248201527f456e63727970746564486967684c6f773a206e6f7468696e6720746f20636c61604482015261696d60f01b606482015260840161040b565b60028101805462ff0000191662010000179055600d8201546117d29033906123c9565b336001600160a01b0316847f5380cf6fe903b40c6d5a9e0dfbca2f3a423f0a21520b4d5947ed5169bdba946d84600d015460405161181291815260200190565b60405180910390a350505061182660015f55565b50565b6118316123a1565b8060015481106118705760405162461bcd60e51b815260206004820181905260248201525f51602061333c5f395f51905f52604482015260640161040b565b5f8281526002602052604090206008810154610100900460ff166118d65760405162461bcd60e51b815260206004820152601d60248201527f456e63727970746564486967684c6f773a206e6f7420736574746c6564000000604482015260640161040b565b80546001600160a01b0316331461192f5760405162461bcd60e51b815260206004820152601d60248201527f456e63727970746564486967684c6f773a206e6f742063726561746f72000000604482015260640161040b565b600f81015460ff161561198e5760405162461bcd60e51b815260206004820152602160248201527f456e63727970746564486967684c6f773a20616c726561647920636c61696d656044820152601960fa1b606482015260840161040b565b5f81600e015482600c01546119a3919061303c565b600f8301805460ff1916600117905590506119be33826123c9565b604051818152339085907f5cbb1fdb11b0d620bd84cea6e39ed36062879ee487713cfee19bbdc7fb79c8d190602001611812565b5f846001548110611a325760405162461bcd60e51b815260206004820181905260248201525f51602061333c5f395f51905f52604482015260640161040b565b46617a691480611a43575046610539145b611a8f5760405162461bcd60e51b815260206004820181905260248201527f456e63727970746564486967684c6f773a2064656275672064697361626c6564604482015260640161040b565b5f8681526002602052604090206008810154610100900460ff1615611b005760405162461bcd60e51b815260206004820152602160248201527f456e63727970746564486967684c6f773a20616c726561647920736574746c656044820152601960fa1b606482015260840161040b565b8060020154421015611b545760405162461bcd60e51b815260206004820152601e60248201527f456e63727970746564486967684c6f773a20726f756e64206163746976650000604482015260640161040b565b60108101548414611bb25760405162461bcd60e51b815260206004820152602260248201527f456e63727970746564486967684c6f773a206d69736d61746368206775657373604482015261657360f01b606482015260840161040b565b5f8690505f5f5f611bf685858b8b808060200260200160405190810160405280939291908181526020018383602002808284375f920191909152506120d792505050565b6040805160ff89168082526005106020820152908101849052606081018390526080810182905292955090935091508b907f205b268a0a37384cc73396235b8e9940016f506f8559ea77d101a776230341539060a00160405180910390a25060019a9950505050505050505050565b611ceb6040518061020001604052805f6001600160a01b031681526020015f81526020015f81526020015f81526020015f81526020015f81526020015f151581526020015f151581526020015f151581526020015f60ff1681526020015f151581526020015f81526020015f81526020015f81526020015f81526020015f151581525090565b816001548110611d2a5760405162461bcd60e51b815260206004820181905260248201525f51602061333c5f395f51905f52604482015260640161040b565b5f8381526002602081815260409283902083516102008101855281546001600160a01b0316815260018201549281019290925260038101549382019390935290820154606082015260048201546080820152600582015460a0820152600882015460ff808216151560c08401526101008083048216151560e0850152620100009092048116151582840152600a84015480821661012085015291909104161515610140820152600b820154610160820152600e820154600c830154610180830191611df49161303c565b8152600d830154602082015260108301546040820152600f9092015460ff1615156060909201919091529392505050565b6060816001548110611e665760405162461bcd60e51b815260206004820181905260248201525f51602061333c5f395f51905f52604482015260640161040b565b5f8381526002602090815260409182902060100180548351818402810184019094528084529091830182828015611ec457602002820191905f5260205f20905b81546001600160a01b03168152600190910190602001808311611ea6575b5050505050915050919050565b5f8581526003602090815260408083205480845260029092528220600881015460ff16611f4c5760405162461bcd60e51b815260206004820152602360248201527f456e63727970746564486967684c6f773a206e6f2070656e64696e672072657660448201526219585b60ea1b606482015260840161040b565b611fbe8888888080601f0160208091040260200160405190810160405280939291908181526020018383808284375f9201919091525050604080516020601f8c018190048102820181019092528a815292508a91508990819084018382808284375f9201919091525061247792505050565b60108101545f808083810361201f575f611fda8b8d018d613067565b905061201186825f60405190808252806020026020018201604052801561200b578160200160208202803683370190505b506120d7565b919550935091506120469050565b5f8061202d8c8e018e613080565b9150915061203c8783836120d7565b9196509450925050505b600a8501546040805160ff8084168252610100909304909216151560208301528101849052606081018390526080810182905286907f205b268a0a37384cc73396235b8e9940016f506f8559ea77d101a776230341539060a00160405180910390a2600885015462010000900460ff16156120c5576120c585876124e0565b5060019b9a5050505050505050505050565b60088301805461010061ffff199182168117909255600a8501805490911660ff8516908117600590911192830217905560108401545f91829182919080830361214b5750505f600b87018190556005870154600c8801819055600d8801829055600e88018290559093509150829050612349565b808651146121a65760405162461bcd60e51b815260206004820152602260248201527f456e63727970746564486967684c6f773a206d69736d61746368206775657373604482015261657360f01b606482015260840161040b565b5f5b81811015612291575f8960100182815481106121c6576121c6613014565b5f9182526020808320909101546001600160a01b031680835260118d01909152604082208a5191935091908a908590811061220357612203613014565b60209081029190910101516002830180548215156401000000000264ffff0000001990911617630100000017905590505f86801561223e5750815b80612250575086158015612250575081155b600284018054821580156101000261ff0019909216919091179091559091506122815761227e60018b61303c565b99505b5050600190920191506121a89050565b50600b88018590555f8590036122c857505050506005840154600c85018190555f600d8601819055600e8601819055915081612349565b5f600289600501546122da919061315e565b90505f818a600501546122ed919061317d565b90506122f9878261315e565b94505f6123068887613190565b838c60050154612316919061317d565b612320919061317d565b600c8c01849055600d8c01879055600e8c018190559050612341818461303c565b965050505050505b93509350939050565b5f61235f83836002612683565b90505b92915050565b5f61237382306127a3565b5090565b5f61238283836127a3565b5090919050565b5f61235f83835f61282c565b5f61235f83835f612683565b60025f54036123c357604051633ee5aeb560e01b815260040160405180910390fd5b60025f55565b5f826001600160a01b0316826040515f6040518083038185875af1925050503d805f8114612412576040519150601f19603f3d011682016040523d82523d5f602084013e612417565b606091505b50509050806124725760405162461bcd60e51b815260206004820152602160248201527f456e63727970746564486967684c6f773a207472616e73666572206661696c656044820152601960fa1b606482015260840161040b565b505050565b5f6124818461295a565b90505f61248f828585612a2a565b9050806124af5760405163cf6c44e960e01b815260040160405180910390fd5b60405185907f1af0453083661051f6e56e5c070792320652e612154bf9af8637bb1e7655b99d905f90a25050505050565b5f82600e015483600c01546124f5919061303c565b600d84015460108501549192509082158015906125175750600f85015460ff16155b1561258457600f8501805460ff191660011790558454612540906001600160a01b0316846123c9565b84546040518481526001600160a01b039091169085907f5cbb1fdb11b0d620bd84cea6e39ed36062879ee487713cfee19bbdc7fb79c8d19060200160405180910390a35b5f8211801561259657505f85600b0154115b1561267c575f5b8181101561267a575f8660100182815481106125bb576125bb613014565b5f9182526020808320909101546001600160a01b031680835260118a01909152604090912060028101549192509060ff6101009091041680156126095750600281015462010000900460ff16155b156126705760028101805462ff000019166201000017905561262b82866123c9565b816001600160a01b0316877f5380cf6fe903b40c6d5a9e0dfbca2f3a423f0a21520b4d5947ed5169bdba946d8760405161266791815260200190565b60405180910390a35b505060010161259d565b505b5050505050565b7f9e7b61f58c47dc699ac88507c4f5bb9f121c03808c5676a8078fe583e46497015460405163196d0b9b60e01b81525f917f9e7b61f58c47dc699ac88507c4f5bb9f121c03808c5676a8078fe583e4649700916001600160a01b039091169063196d0b9b906126fc9088903390899089906004016131d5565b6020604051808303815f875af1158015612718573d5f5f3e3d5ffd5b505050506040513d601f19601f8201168201806040525081019061273c9190613229565b8154604051630f8e573b60e21b8152600481018390523360248201529193506001600160a01b031690633e395cec906044015f604051808303815f87803b158015612785575f5ffd5b505af1158015612797573d5f5f3e3d5ffd5b50505050509392505050565b5f7f9e7b61f58c47dc699ac88507c4f5bb9f121c03808c5676a8078fe583e46497008054604051635ca4b5b160e11b8152600481018690526001600160a01b03858116602483015292935091169063b9496b62906044015f604051808303815f87803b158015612811575f5ffd5b505af1158015612823573d5f5f3e3d5ffd5b50505050505050565b7f878245876662ba28a480c5ea71726db859fb50222b0a3d7cbbc21cfa336faf0080547f9e7b61f58c47dc699ac88507c4f5bb9f121c03808c5676a8078fe583e46497008054604051637d6e912360e11b81529293926001600160a01b039091169063fadd2246906128a290899060040161327a565b5f604051808303815f87803b1580156128b9575f5ffd5b505af11580156128cb573d5f5f3e3d5ffd5b5050506002820154604051633263b83b60e01b81526001600160a01b039091169150633263b83b9086906129079087908b908b9060040161328c565b5f604051808303818588803b15801561291e575f5ffd5b505af1158015612930573d5f5f3e3d5ffd5b505050505061293f8387612b16565b8154825f61294c8361304f565b919050555050509392505050565b5f8181527f878245876662ba28a480c5ea71726db859fb50222b0a3d7cbbc21cfa336faf0160205260408120546060917f878245876662ba28a480c5ea71726db859fb50222b0a3d7cbbc21cfa336faf009190036129cb5760405163d66ca67560e01b815260040160405180910390fd5b5f83815260018201602090815260409182902080548351818402810184019094528084529091830182828015611ec457602002820191905f5260205f20905b815481526020019060010190808311612a0a575050505050915050919050565b5f5f83516020612a3a919061303c565b612a4590602061303c565b90505f8482604051602001612a5b9291906132bd565b60405160208183030381529060405290505f612a947f9e7b61f58c47dc699ac88507c4f5bb9f121c03808c5676a8078fe583e464970090565b60038101546040516378542ead60e01b81529192506001600160a01b0316906378542ead90612acb908a9086908a906004016132d7565b6020604051808303815f875af1158015612ae7573d5f5f3e3d5ffd5b505050506040513d601f19601f82011682018060405250810190612b0b9190613319565b979650505050505050565b5f8281527f878245876662ba28a480c5ea71726db859fb50222b0a3d7cbbc21cfa336faf0160205260409020547f878245876662ba28a480c5ea71726db859fb50222b0a3d7cbbc21cfa336faf009015612b8357604051633f06d22b60e01b815260040160405180910390fd5b5f83815260018201602090815260409091208351612ba392850190612ba9565b50505050565b828054828255905f5260205f20908101928215612be2579160200282015b82811115612be2578251825591602001919060010190612bc7565b506123739291505b80821115612373575f8155600101612bea565b803560ff81168114612c0d575f5ffd5b919050565b5f5f5f60608486031215612c24575f5ffd5b83359250612c3460208501612bfd565b929592945050506040919091013590565b5f5f83601f840112612c55575f5ffd5b50813567ffffffffffffffff811115612c6c575f5ffd5b602083019150836020828501011115612c83575f5ffd5b9250929050565b8015158114611826575f5ffd5b8035612c0d81612c8a565b5f5f5f5f5f5f5f5f60e0898b031215612cb9575f5ffd5b88359750602089013567ffffffffffffffff811115612cd6575f5ffd5b612ce28b828c01612c45565b90985096505060408901359450606089013593506080890135925060a0890135915060c0890135612d1281612c8a565b809150509295985092959890939650565b5f5f60408385031215612d34575f5ffd5b8235915060208301356001600160a01b0381168114612d51575f5ffd5b809150509250929050565b5f60208284031215612d6c575f5ffd5b5035919050565b5f5f5f5f60608587031215612d86575f5ffd5b8435935060208501359250604085013567ffffffffffffffff811115612daa575f5ffd5b612db687828801612c45565b95989497509550505050565b5f5f5f5f60608587031215612dd5575f5ffd5b84359350612de560208601612bfd565b9250604085013567ffffffffffffffff811115612e00575f5ffd5b8501601f81018713612e10575f5ffd5b803567ffffffffffffffff811115612e26575f5ffd5b8760208260051b8401011115612e3a575f5ffd5b949793965060200194505050565b81516001600160a01b0316815261020081016020830151602083015260408301516040830152606083015160608301526080830151608083015260a083015160a083015260c0830151612e9f60c084018215159052565b5060e0830151612eb360e084018215159052565b50610100830151612ec961010084018215159052565b50610120830151612ee061012084018260ff169052565b50610140830151612ef661014084018215159052565b506101608301516101608301526101808301516101808301526101a08301516101a08301526101c08301516101c08301526101e0830151610ad36101e084018215159052565b602080825282518282018190525f918401906040840190835b81811015612f7c5783516001600160a01b0316835260209384019390920191600101612f55565b509095945050505050565b5f5f5f5f5f60608688031215612f9b575f5ffd5b85359450602086013567ffffffffffffffff811115612fb8575f5ffd5b612fc488828901612c45565b909550935050604086013567ffffffffffffffff811115612fe3575f5ffd5b612fef88828901612c45565b969995985093965092949392505050565b634e487b7160e01b5f52604160045260245ffd5b634e487b7160e01b5f52603260045260245ffd5b634e487b7160e01b5f52601160045260245ffd5b8082018082111561236257612362613028565b5f6001820161306057613060613028565b5060010190565b5f60208284031215613077575f5ffd5b61235f82612bfd565b5f5f60408385031215613091575f5ffd5b61309a83612bfd565b9150602083013567ffffffffffffffff8111156130b5575f5ffd5b8301601f810185136130c5575f5ffd5b803567ffffffffffffffff8111156130df576130df613000565b8060051b604051601f19603f830116810181811067ffffffffffffffff8211171561310c5761310c613000565b604052918252602081840181019290810188841115613129575f5ffd5b6020850194505b8385101561314f5761314185612c97565b815260209485019401613130565b50809450505050509250929050565b5f8261317857634e487b7160e01b5f52601260045260245ffd5b500490565b8181038181111561236257612362613028565b808202811582820484141761236257612362613028565b5f81518084528060208401602086015e5f602082860101526020601f19601f83011685010191505092915050565b8481526001600160a01b0384166020820152608060408201525f6131fc60808301856131a7565b90506054831061321a57634e487b7160e01b5f52602160045260245ffd5b82606083015295945050505050565b5f60208284031215613239575f5ffd5b5051919050565b5f8151808452602084019350602083015f5b82811015613270578151865260209586019590910190600101613252565b5093949350505050565b602081525f61235f6020830184613240565b838152606060208201525f6132a46060830185613240565b905063ffffffff60e01b83166040830152949350505050565b5f83518060208601845e9190910191825250602001919050565b606081525f6132e96060830186613240565b82810360208401526132fb81866131a7565b9050828103604084015261330f81856131a7565b9695505050505050565b5f60208284031215613329575f5ffd5b815161333481612c8a565b939250505056fe456e63727970746564486967684c6f773a2067616d65206e6f7420666f756e64a164736f6c634300081b000a",
  "linkReferences": {},
  "deployedLinkReferences": {}
}